{
  "contractName": "Adoption",
  "abi": [
    {
      "constant": true,
      "inputs": [
        {
          "name": "",
          "type": "uint256"
        }
      ],
      "name": "adopters",
      "outputs": [
        {
          "name": "",
          "type": "address"
        }
      ],
      "payable": false,
      "stateMutability": "view",
      "type": "function",
      "signature": "0x43ae80d3"
    },
    {
      "constant": false,
      "inputs": [
        {
          "name": "petId",
          "type": "uint256"
        }
      ],
      "name": "adopt",
      "outputs": [
        {
          "name": "",
          "type": "uint256"
        }
      ],
      "payable": false,
      "stateMutability": "nonpayable",
      "type": "function",
      "signature": "0x8588b2c5"
    },
    {
      "constant": true,
      "inputs": [],
      "name": "getAdopters",
      "outputs": [
        {
          "name": "",
          "type": "address[16]"
        }
      ],
      "payable": false,
      "stateMutability": "view",
      "type": "function",
      "signature": "0x3de4eb17"
    }
  ],
  "bytecode": "0x608060405234801561001057600080fd5b5061026a806100206000396000f3fe6080604052600436106100565763ffffffff7c01000000000000000000000000000000000000000000000000000000006000350416633de4eb17811461005b57806343ae80d3146100a95780638588b2c5146100fc575b600080fd5b34801561006757600080fd5b50610070610138565b604051808261020080838360005b8381101561009657818101518382015260200161007e565b5050505090500191505060405180910390f35b3480156100b557600080fd5b506100d3600480360360208110156100cc57600080fd5b503561018b565b6040805173ffffffffffffffffffffffffffffffffffffffff9092168252519081900360200190f35b34801561010857600080fd5b506101266004803603602081101561011f57600080fd5b50356101b5565b60408051918252519081900360200190f35b61014061021e565b604080516102008101918290529060009060109082845b815473ffffffffffffffffffffffffffffffffffffffff168152600190910190602001808311610157575050505050905090565b6000816010811061019857fe5b015473ffffffffffffffffffffffffffffffffffffffff16905081565b60008082101580156101c85750600f8211155b15156101d357600080fd5b33600083601081106101e157fe5b01805473ffffffffffffffffffffffffffffffffffffffff191673ffffffffffffffffffffffffffffffffffffffff929092169190911790555090565b61020060405190810160405280601090602082028038833950919291505056fea165627a7a723058207131fa0bced1534132edf2fa48530b554c00e8a0156c1afd68e3701e9b5cc2f70029",
  "source": "pragma solidity ^0.5.0;\r\n\r\ncontract Adoption {\r\n    address[16] public adopters;\r\n\r\n    // Adopting a pet\r\n    function adopt(uint petId) public returns (uint) {\r\n        require(petId >= 0 && petId <= 15);\r\n\r\n        adopters[petId] = msg.sender;\r\n\r\n        return petId;\r\n    }\r\n\r\n    // Retrieving the adopters\r\n    function getAdopters() public view returns (address[16] memory) {\r\n        return adopters;\r\n    }\r\n}",
  "sourcePath": "C:/Users/Terj/Desktop/pet-shop-tutorial/contracts/Adoption.sol",
  "compiler": {
    "name": "solc",
    "version": "0.5.0+commit.1d4f565a.Emscripten.clang"
  },
  "schemaVersion": "3.0.5",
  "updatedAt": "2019-03-28T16:43:02.412Z",
  "devdoc": {
    "methods": {}
  },
  "userdoc": {
    "methods": {}
  }
}